:020000040800F2
:10000000C808002039020008631C00082D190008E8
:10001000611C00081B050008A11E0008000000006C
:10002000000000000000000000000000F91D0008B2
:10003000A505000800000000651C0008FB1D000865
:10004000530200085302000853020008530200083C
:100050005302000853020008A705000853020008D5
:10006000530200085302000853020008530200081C
:10007000530200085302000853020008530200080C
:100080005302000853020008530200080000000059
:100090000000000000000000000000005302000803
:1000A00053020008530200085302000853020008DC
:1000B00053020008530200085302000853020008CC
:1000C00053020008530200085302000853020008BC
:1000D0005302000853020008530200080000000009
:1000E00053020008530200085302000800000000F9
:1000F00000000000000000000000000053020008A3
:1001000000000000530200085302000853020008D8
:1001100000000000000000000000000000000000DF
:100120001D0500085302000853020008530200088E
:100130005302000800000000000000000000000062
:100140000000000000000000000000005302000852
:10015000530200085302000853020008530200082B
:1001600053020008530200080000000000000000D5
:10017000000000000000000000000000000000007F
:100180000000000053020008000000000000000012
:10019000530200085302000800F002F800F03CF897
:1001A0000AA090E8000C82448344AAF10107DA45D2
:1001B00001D100F031F8AFF2090EBAE80F0013F0E8
:1001C000010F18BFFB1A43F001031847EC1D000094
:1001D0000C1E0000103A24BF78C878C1FAD8520724
:1001E00024BF30C830C144BF04680C6070470000B1
:1001F0000023002400250026103A28BF78C1FBD830
:10020000520728BF30C148BF0B6070471FB501F0CF
:10021000C1FE1FBD10B510BD00F046F91146FFF735
:10022000F5FF01F04FFE00F064F903B4FFF7F2FFB1
:1002300003BC00F06BF900000948804709480047FB
:10024000FEE7FEE7FEE7FEE7FEE7FEE7FEE7FEE786
:10025000FEE7FEE704480549054A064B70470000E3
:10026000911E000899010008C8020020C80800205B
:10027000C8040020C804002053EA020C00F0698082
:100280002DE9F04B4FF00006002B1FBFB3FA83F5AA
:1002900003FA05F424FA05F65E4012BF1643B2FADB
:1002A00082F502FA05F4C5F120051EBF22FA05FC0D
:1002B00044EA0C04203556EA044C4FEA144418BFB3
:1002C000641C4FF000084FF00009904271EB030CE2
:1002D00039D3002919BFB1FA81F701FA07F6B0FA4C
:1002E00080F700FA07F6C7F120071EBF20FA07FCC7
:1002F00046EA0C062037B6FBF4FCA7EB0507103FD7
:1003000007F01F0BCBF120060CFA0BFB2CFA06F6BC
:1003100044BFB3460026202FA4BF5E464FF0000B1B
:100320005BEA060C08BF4FF0010B19EB0B09ABFBA6
:10033000027C48EB0608C01B06FB02CC0BFB03CC7F
:1003400071EB0C01C1E70B46024641464846BDE849
:10035000F08B13B54FF000004FF00001AFF30080B9
:10036000BDE81C407047032A40F2308010F0030CB7
:1003700000F0158011F8013BBCF1020F624498BFF8
:1003800011F801CB00F8013B38BF11F8013BA2F195
:10039000040298BF00F801CB38BF00F8013B11F010
:1003A000030300F02580083AC0F0088051F8043BB0
:1003B000083A51F804CBA0E80810F5E7121D5CBF1D
:1003C00051F8043B40F8043BAFF30080D20724BF50
:1003D00011F8013B11F801CB48BF11F8012B24BFE4
:1003E00000F8013B00F801CB48BF00F8012B704733
:1003F00010B5203AC0F00B80B1E81850203AA0E8C0
:100400001850B1E81850A0E81850BFF4F5AF5FEAF3
:10041000027C24BFB1E81850A0E8185044BF18C9A6
:1004200018C0BDE810405FEA827C24BF51F8043B4D
:1004300040F8043B08BF7047D20728BF31F8023BA1
:1004400048BF11F8012B28BF20F8023B48BF00F835
:10045000012B70474FF0000200B5134694469646B4
:10046000203922BFA0E80C50A0E80C50B1F12001C7
:10047000BFF4F7AF090728BFA0E80C5048BF0CC075
:100480005DF804EB890028BF40F8042B08BF7047D3
:1004900048BF20F8022B11F0804F18BF00F8012B45
:1004A0007047704770477047754600F02BF8AE46AE
:1004B00005006946534620F00700854618B020B570
:1004C000FFF7C8FEBDE820404FF000064FF00007E0
:1004D0004FF000084FF0000B21F00701AC46ACE8EC
:1004E000C009ACE8C009ACE8C009ACE8C0098D4659
:1004F000704710B50446AFF300802046BDE81040B9
:10050000FFF793BE0048704764020020014918209D
:10051000ABBEFEE7260002007047FEE7014800F090
:10052000E1B90000BC01002001681823CAB2103AEA
:10053000B2FBF3F2054B6FF30901032A9B5CC36521
:1005400000D9091D81650846704700009E1F0008FC
:1005500010B5014600208B698A6A4FF0C07453B110
:10056000B3F5005F15D072B1012A0CD0022A0AD06F
:10057000032A09D104E01AB1012A06D0022A03D1C4
:10058000C96AC90100D5012010BDC96AA142FAD0CB
:1005900010BD002AF7D0012AF2D0022AF3D0032A94
:1005A000F3D010BD7047012000F0A0BB72B6FEE78B
:1005B000002229B101291AD002291BD04FF4407220
:1005C0000E490B6823F440730B600B6813430B60F8
:1005D0000A6822F0F8020A600A68022303EBC000EE
:1005E00002430A60086840F48030086070474FF4A6
:1005F0008072E5E74FF40072E2E70000103C024031
:100600001348016889050FD5016821F40071016064
:10061000016841F400610160016821F4006101603A
:10062000016841F400710160016849050FD5016856
:1006300021F480610160016841F48051016001682A
:1006400021F480510160016841F4806101607047CC
:10065000003C024008490A6822F440720A600A68B5
:1006600042F004020A600A684FF4803343EA002033
:1006700002430A6070470000103C0240064A1368BB
:1006800023F44073136013681360136843F001038D
:100690001360017070470000103C0240094910B51A
:1006A0000C6824F440740C600C6844F440740C60D2
:1006B0000C6844F001040C600260BFF36F8F43606C
:1006C00010BD0000103C0240074A136823F4407339
:1006D0001360136843F480731360136843F00103DD
:1006E0001360018070470000103C0240074A136805
:1006F00023F440731360136843F4007313601368AA
:1007000043F001031360016070470000103C024099
:100710001C490868C2061C4805D5C26942F010028F
:10072000C26110220A600A68920605D5C26942F0C9
:100730000802C26120220A600A68520605D5C26911
:1007400042F00402C26140220A600A68120605D51E
:10075000C26942F00202C26180220A600A68D205C0
:1007600006D5C26942F00102C2614FF480720A608C
:100770000A68920705D5C26942F02002C2610220D0
:10078000086070470C3C02404402002070B51149DB
:1007900004460020C86100F0AFFB06460E4D09E09C
:1007A000601C07D024B100F0A7FB801BA04201D938
:1007B000032070BD2868C003F2D42868C00701D0A8
:1007C00001202860286810F4F970F2D0FFF7A0FF2C
:1007D000012070BD440200200C3C0240521E92B227
:1007E00004D350F8013B01F8013BF7E770470000E4
:1007F0002DE9F843174688460546002400F058FACC
:10080000284600F029F80646E81900F025F80146C8
:1008100010480022891B02600222491C8660C0E940
:100820000312694600F0AAF940B90DE0002318F858
:1008300004202946184600F0FDF918B100F0EAF945
:10084000BDE8F883641C6D1CBC42EFDB00F0E8F9E6
:100850000020F5E71C0200200021A0F1006343F610
:10086000FF7293422BD3174B0344934201D20121D1
:1008700025E0154B0344934201D202211FE0134BA4
:100880000344934201D2032119E0114A4FF6FF734A
:1008900002449A4201D2042111E00E4A83180E4A02
:1008A000934201D205210AE00C4B0344934201D24A
:1008B000062104E00A4B1844904200D20721084662
:1008C0007047000000C0FFF70080FFF70040FFF70F
:1008D0000000FFF70000FEF7FFFF01000000FCF73B
:1008E0000000FAF72DE9F84304464FF00009CDF86F
:1008F000009063484FF41651A56D0068B0FBF1F706
:100900002E6894F85C10082000FA01F131420FD0F3
:1009100021680A6852070BD50A6822F004020A60AF
:1009200094F85C108840A860606D40F0010060653C
:1009300094F85C104FF0010808FA01F0304208D03A
:1009400021684969090604D5A860606D40F002007D
:10095000606594F85C1004208840304208D021681B
:100960000968890704D5A860606D40F004006065DF
:1009700094F85C1010208840304218D02168096833
:10098000090714D5A86020680168490304D50068E8
:10099000000308D5A16C07E00168C90503D401680C
:1009A00021F008010160216C09B12046884794F8C4
:1009B0005C1020208840304231D021680968C90687
:1009C0002DD5A86094F8350005282068016806D068
:1009D000490347D5006800031DD4616C1CE021F079
:1009E000160101602068416921F080014161206C9D
:1009F00008B9A06C20B12068016821F008010160ED
:100A000094F85C103F208840A86084F8358084F812
:100A10003490216D1FE0E16B09B120468847606D7D
:100A200000282BD0606DC00714D0052084F8350055
:100A30002068016821F0010101600098401C0090CD
:100A4000B84203D820680068C007F6D184F8358022
:100A500084F83490E16C002910D001B02046BDE844
:100A6000F04308470168C905D5D4016821F0100199
:100A7000016084F8358084F83490CCE7BDE8F883D1
:100A8000100000202DE9F041044600F035FA06463A
:100A90005CB1022084F83500002584F834502068C9
:100AA000016821F0010101600DE00120BDE8F08145
:100AB00000F022FA801B052805D92020606503205C
:100AC00084F83500F2E720680068C007F0D122689A
:100AD000116820480140D4E901031843D4E90336E2
:100AE0003343184363691843A3691843E369184300
:100AF000236A18430843616A042903D1D4E90B131C
:100B000019430843106020684069666A20F00701B5
:100B100030460E43012704280CD1A06A0643E06A40
:100B200040B12046FFF714FD20B14020606584F8F5
:100B30003570BAE7206846612046FFF7F5FC94F867
:100B40005C203F2191408160656584F8357000200C
:100B5000ACE700003F8010F070B5044600F0CCF91F
:100B60000546601C02D004480078044400F0C4F933
:100B7000401BA042FAD370BD040000202DE9F047CD
:100B8000044622480F46017E01290AD001218046F1
:100B900001764CF250394846FFF7F8FD020003D0C9
:100BA0002FE00220BDE8F0874FF0FF30386020686A
:100BB000174D012801D0A6681CE0207C6168FFF772
:100BC00049FD4846FFF7E2FD0246286820F0040090
:100BD000286014E0217C3046FFF7EAFC4846FFF726
:100BE000D5FD0200286820F0FA00286001D03E60A0
:100BF00005E0761CD4E902100844B042EAD8FFF7B9
:100C0000FFFC002188F818101046CBE744020020B2
:100C1000103C02400148C0697047000044020020B7
:100C20000348016841F00041016000207047000066
:100C3000103C02402DE9F0471B4E05461446307E1D
:100C40001F468946012808D0012030764CF25038E2
:100C50004046FFF79BFD18B114E00220BDE8F08785
:100C60009DB1012D16D0022D19D022463B46484693
:100C7000FFF714FD4046FFF789FD0C490A6822F092
:100C800001020A6000213176E8E7E1B24846FFF749
:100C9000F5FCEFE7A1B24846FFF716FDEAE721466B
:100CA0004846FFF723FDE5E744020020103C0240E0
:100CB000074900200A68002A09DA054A054B0C3A60
:100CC0001360054B13600968002900DA01207047A2
:100CD000103C024023016745AB89EFCD012801D1CB
:100CE000014908707047000000000020044910B559
:100CF0000A68024202D00860FFF7F0FF10BD000052
:100D0000143C01402DE9F84FDFF8B8A1002201247E
:100D100003254FF00F090AF1040BAAF1040E00BFDE
:100D20000B6804FA02F63340B34273D10F7907F02F
:100D30000307012F01D0022F16D187684FEA42081E
:100D400005FA08FC27EA0C07D1F80CC00CFA08FCDD
:100D50004CEA070CC0F808C04768B7430E79C6F3E1
:100D6000001696403E4346600E79F643B6070DD016
:100D7000C768560005FA06FC27EA0C07D1F808C038
:100D80000CFA06FC4CEA070CC0F80CC00E7906F011
:100D90000306022E10D1D60800EB8608D8F8206092
:100DA00057074FEAD76C09FA0CF7BE430F6907FAE9
:100DB0000CF73743C8F8207006684FEA420C05FA72
:100DC0000CF7BE430F7907F0030707FA0CF7374318
:100DD00007604E6816F4403F6DD03B4E376847F4CD
:100DE00080473760366822F0030706F48046009695
:100DF000364E07EB060CDCF8086897073F0F09FA38
:100E000007F826EA0806DFF8C880404503D14FF00E
:100E100000081EE04FE0DFF8BC80404502D14FF0F3
:100E2000010816E0DFF8B080404502D14FF002081B
:100E30000FE0DFF8A880404502D14FF0030808E03A
:100E4000DFF89C80404502D14FF0040801E04FF0EC
:100E5000070808FA07F848EA0608CCF80888DAF81C
:100E600000605746D1F804C09E435FEACC2C00D501
:100E70001E433E60DBF800605F46D1F804C09E432D
:100E80005FEA8C2C00D51E433E60DEF8006077469A
:100E9000D1F804C09E435FEA8C3C00D51E433E60FF
:100EA000084F083F3E68D1F804C09E435FEACC3C3F
:100EB00000D51E433E60521C102AFFF431AFBDE83E
:100EC000F88F0000083C01404438024000300140E7
:100ED000000002400004024000080240000C0240F2
:100EE000001002400069084000D0012070470AB19C
:100EF000816170470904FBE7014880687047000082
:100F00000400002002488168027811448160704723
:100F1000040000200B4810B5016841F40071016025
:100F2000016841F480610160016841F480710160F1
:100F3000032000F06FF80F2000F006F800F024F80E
:100F4000002010BD003C024070B50D4D04464FF42A
:100F50007A712878B1FBF0F00A490968B1FBF0F02A
:100F600000F08BFC48B9102C07D200222146501EFD
:100F700000F030F800206C6070BD012070BD0000F2
:100F800004000020100000200A4808B5016841F460
:100F900080410160006800F4804000900548001F17
:100FA000016841F080510160006800F080500090BD
:100FB00008BD000044380240002809DB00F01F0291
:100FC000012191404009800000F1E020C0F80011AB
:100FD00070470000F0B40E4B1B680C46C3F30223AD
:100FE000C3F10705042D00D90425191D072901D2D5
:100FF000002300E0DB1E012606FA05F1491E214010
:1010000099409E40761E16403143F0BC00F049BF27
:101010000CED00E0064900F0070208684FF6FF03F8
:10102000184040EA0220034A10430860704700005D
:101030000CED00E00000FA052DE9F0470E46050032
:1010400065D0DFF81481D8F80000F7B200F007008F
:10105000B04207D288F80070D8F8000000F007000E
:10106000B04254D128683D4C810712D5400703D5C2
:10107000206840F4E05020602878000703D52068FD
:1010800040F4604020602068A96820F0F000084328
:1010900020602878C0072DD03049686808390128B9
:1010A00012D0022813D0032811D00968890700291B
:1010B0002DDA216821F0030101432160FFF71CFFB5
:1010C000814641F2883A0EE009688903EFE7096832
:1010D0008901ECE7FFF710FFA0EB0901514502D9A8
:1010E0000320BDE8F0872068696800F00C00B0EBD1
:1010F000810FEFD1D8F80010404601F00701B1424E
:1011000007D90770006800F00700B04201D0012045
:10111000E7E72878400705D52068E96820F4E05023
:10112000084320602878000706D52068296920F444
:10113000604040EAC100206000F018F82168084AC9
:10114000C1F30311515CC8400649086006480068B5
:10115000FFF7FAFE0020C4E7003C024008380240D6
:10116000A61F00081000002008000020154810B538
:10117000006810F00C02144813D04110042A0FD05C
:10118000082A0ED10F4C241F2268236802F03F0268
:101190005B0207D52068C0F38810A0FB010106E0C0
:1011A000084610BD2168C1F38811A1FB000100238E
:1011B000FFF762F82168C1F30141491C4900B0FB07
:1011C000F1F010BD083802400024F4002DE9F84F7A
:1011D00004006ED02078DFF84C93C007A9F1040515
:1011E0004AD009F104000168C1F38101012908D046
:1011F0000068C0F3810002280AD1D9F8000040023B
:1012000006D52868800337D560680028E1D033E030
:101210006068B0F5803F10D0B0F5A02F286810D0DE
:1012200020F480302860286820F4802028606068DE
:10123000A8B1FFF761FE06460DE0286840F4803053
:10124000F4E740F480202860F7E700BFFFF754FE82
:10125000801B642873D828688003F7D50CE0FFF75B
:101260004BFE064605E000BFFFF746FE801B6428E4
:10127000F0D828688003F7D42078DFF8AC828007A4
:101280004FF0000A3ED5A748001D016811F00C0F71
:1012900008D00068C0F3810002280BD1D9F8000003
:1012A000400207D42868800716D5E068012800D1DD
:1012B00012E033E1E068B8B10120C8F80000FFF7A0
:1012C0001BFE064605E000BFFFF716FE801B022846
:1012D000C0D828688007F7D52868216920F0F80071
:1012E00040EAC10028600DE0C8F800A0FFF704FE46
:1012F000064604E0FFF700FE801B02281FD828687E
:101300008007F7D42078000722D5864F8748616987
:10131000703771B101210160FFF7EEFD064604E070
:10132000FFF7EAFD801B022809D838688007F7D547
:101330000EE0C0F800A0FFF7DFFD064605E082E002
:10134000FFF7DAFD801B02287DD838688007F7D4C4
:101350002078400768D5DFF8CCB100270BF13C0BB3
:10136000DBF80000C0000BD4DBF8001041F0805126
:10137000CBF80010DBF80000012700F0805000904F
:101380006B4E3068C00510D4306840F48070306017
:10139000FFF7B2FD009005E0FFF7AEFD0099401A9F
:1013A000022850D83068C005F6D55E4EA0686C366D
:1013B00001280FD00528306810D020F001003060DF
:1013C000306820F004003060A068B8B1FFF794FDE9
:1013D00000900FE0306840F00100F4E740F00400B6
:1013E0003060F7E7FFF788FD0099411A41F2883035
:1013F000814266D830688007F4D50EE0FFF77CFDA7
:10140000009007E0FFF778FD0099411A41F288301B
:10141000814256D830688007F4D42FB1DBF8001031
:1014200021F08051CBF80010A069C8B33D49091DD7
:101430000968C1F3810102294AD00228504607D029
:10144000C8F8600000E03CE0FFF756FD04463BE0D2
:101450004746C8F86000FFF74FFD064605E000BFAD
:10146000FFF74AFD801B02282BD828688001F7D49B
:10147000D4E907010843A16A2E4A490802EB014159
:10148000626A41EA8211084394F82C1040EA016133
:10149000C9F8001001203866FFF72EFD044606E06B
:1014A0003EE000BFFFF728FD001B022809D828688E
:1014B0008001F7D534E000BFFFF71EFD001B0228B6
:1014C00002D90320BDE8F88F28688001F4D427E012
:1014D0000128F7D0D9F80000E26900F480019142B8
:1014E0001CD1226A00F03F01914217D147F6C0712A
:1014F000626A0140B1EB821F10D1A26A4FF0FF3344
:1015000000F4403103EB5202B1EB024F06D194F8E4
:101510002C1000F07060B0EB016F01D00120D1E71A
:101520000020CFE70438024000004742800E4742C7
:10153000007000400000FFFF70B5040009D0606A31
:10154000002540B125616561A56294F8510040B164
:101550000CE0012070BD6068B0F5827FF4D0E561D9
:10156000F2E784F85050204600F044F8022084F856
:1015700051002068016821F040010160A0882189A4
:1015800000F4827001F404410843A18901F4006170
:101590000843217C01F002010843217D01F0010193
:1015A0000843218B01F400710843217F01F03801C9
:1015B000084394F8201001F080010843218D01F4C4
:1015C0000051084321680860A069042101EA104025
:1015D00094F8241001F01001084321684860206845
:1015E000C16921F40061C1616565012084F8510081
:1015F000002070BD70B586B0064614216846FEF71F
:1016000029FF20493068884239D11F4800250168E8
:1016100041F480510160006800F4805005901A4840
:101620001438016841F0010101600068694600F06A
:1016300001000590E02000900220CDE90105032083
:101640000390052004901148FFF75CFB114C1048F3
:1016500020604FF0C060C4E901054FF48060C4E928
:10166000035080106561C4E906502562204665621A
:10167000FFF708FA08B1FEF799FFF464A66306B015
:1016800070BD0000003001404438024000000240BC
:1016900010640240BC0100202DE9F84F044690F888
:1016A000500000270A9E1D4692468B464FF00109C6
:1016B00001280ED0012084F85000FFF71DFC804661
:1016C00094F85100616801280CD0B1F5827F07D1F0
:1016D00002E00220BDE8F88FA16809B9042801D012
:1016E0000227C2E0BBF1000F27D0BAF1000F24D0CF
:1016F0001DB394F85100042802D0052084F851004D
:1017000000206065C4F838A0E587A587C4F830B02C
:10171000E586A5862064606420680168490603D4D4
:10172000016841F040010160E068B0F5006F606859
:1017300005D0E8B3012D46D07FE0012795E008B140
:10174000012D39D1206B21680088C860206B801C76
:101750002063E08E401EE0862EE0206881688907C5
:101760000FD5E18E69B1B9F1010F0AD1216B09885A
:10177000C160206B801C2063E08E401EE0864FF02D
:10178000000920688168C9070CD0E18F51B1C06899
:10179000A16B0880A06B801CA063E08F401EE087D7
:1017A0004FF00109FFF7A8FBA0EB0800B04200E0F2
:1017B00009E001D3701C50D1E08E0028CDD1E08F1C
:1017C0000028CAD13FE0206B216800780873206BA5
:1017D000401C2063E08E401EE0862EE02068816879
:1017E00089070FD5E18E69B1B9F1010F0AD1216BDB
:1017F00009780173206B401C2063E08E401EE08658
:101800004FF0000920688168C9070CD0E18F51B101
:10181000C068A16B0870A06B401CA063E08F401EE5
:10182000E0874FF00109FFF767FBA0EB0800B0422B
:1018300002D3701C01D010E07EB1E08E0028CDD123
:10184000E08F0028CAD142463146204600F04CFACB
:1018500028B101272020606507E0032705E0A06884
:1018600018B92068C16880680090012084F8510090
:10187000002084F8500038462CE710B5401EB0F127
:10188000807F01D3012010BD4FF0E02460610F2163
:10189000601700F006FB0020A061072020610020F7
:1018A00010BD00002DE9F0410122DFF87080160321
:1018B00031464046FFF71BFB1A4FA0221849384615
:1018C000FEF78CFF1648184D0024015DFF290CD04F
:1018D000641CE4B2A02CF8D3002231464046FFF746
:1018E00006FB00202870BDE8F0810D49A02201F11F
:1018F000A000FEF77DFD0A480949A03020441022CF
:101900001039FEF730FD0649A022A0313846FEF717
:101910006FFF012000EB1410A870DDE7000C0240FF
:101920007C0000200010060800000020FEE710B533
:10193000142000F059F8800705D10321BDE81040BC
:10194000142000F073B810BD7CB50446002529466C
:101950000D2000F001F9932020702020607001A874
:1019600023460090022219460C2000F06BF801007B
:1019700009D1225C401C5540C0B20428F9D3205C38
:10198000A84200D0022108467CBD70B50C46054631
:1019900000F02AF820EA04012846BDE8704000F073
:1019A000DBB810B500F03EF88D212A2000F0D4F805
:1019B0003E212B2000F0D0F81E212D2000F0CCF885
:1019C00000212C2000F0C8F87021262000F0C4F877
:1019D0004021152000F0C0F83D21112000F0BCF896
:1019E000BDE81040FFF7A3BF7E2101EA400040F0B0
:1019F000800000F049B97CB50C46054607210D2052
:101A000000F0AAF8257001A823460090012219468B
:101A10000C2000F017F818B9BDF80410102900D0F8
:101A200002207CBD0F21012000F096B870B50C4655
:101A30000546FFF7D9FF40EA04012846BDE870409B
:101A400000F08AB82DE9FF5F00270226DDF838A0F4
:101A500015468B468146B8460C2805D0B9F10E0FC5
:101A600005D11227102001E077273020804647F06B
:101A70008001022000F070F880210420FFF785FF2C
:101A800080210A20FFF7D2FF0021012000F064F836
:101A9000002406E01BF80410092000F05DF8641C27
:101AA000A4B2AC42F6D34946012000F055F8B9F192
:101AB0000C0F03D180210D20FFF7B8FF4FF4FA651A
:101AC0000420FFF791FF6D1E2D0404462D0C04D059
:101AD000E00702D114EA080FF2D080210D20FFF7B1
:101AE00054FF35B10620FFF77FFF10F01B0F04D025
:101AF000022604B03046BDE8F09F00263C40E007D7
:101B000000D00126B9F10C0FF3D10A20FFF76CFFCA
:101B100004460C20FFF768FF10F007004FEAC401ED
:101B200004D008390844AAF8000001E0AAF800101F
:101B300024B1102C04D91024002503E00124FBE774
:101B4000002506E00920FFF74FFF039948556D1C5B
:101B5000ADB2A542F6D3CCE77E2202EA400000F007
:101B6000ABB800002DE9F04186B014216846FEF7BD
:101B700071FC27480024016841F080010160016880
:101B800001F080010591016841F0010101600168E7
:101B900001F001010591016841F008010160006850
:101BA0001C4F00F008000590012210213846FFF775
:101BB0009EF9DFF86480BE14002231464046FFF7EC
:101BC00096F901254FF488100095CDE90104694686
:101BD0003846FFF797F810200090CDE90154694688
:101BE00038460394FFF78EF80096CDE90154694614
:101BF00040460394FFF786F8002211460620FFF7BF
:101C0000E9F90620FFF7D8F906B0BDE8F081000039
:101C10003038024000000240000C02400F4810B56E
:101C20000D4901604FF48271416000218160C16003
:101C30004FF400720161C0E905121022C0E90721CA
:101C4000416281620A21C162FFF776FC002801D05F
:101C500072B6FEE710BD0000003001401400002005
:101C6000FEE7FEE7704700000EB501238DF8040083
:101C70000A20009002AA01A90248FFF70DFD9DF875
:101C800008000EBD1400002070B50A4D0446002265
:101C900010212846FFF72BF92046FFF7E5FF00202B
:101CA000FFF7E2FF0446012210212846FFF71FF943
:101CB000204670BD0000024070B50A4C0E46054635
:101CC000002210212046FFF712F92846FFF7CCFF2B
:101CD0003046FFF7C9FF2046BDE8704001221021C1
:101CE000FFF705B90000024038B504461248134B0F
:101CF0000068B0FBF3F04FF47A73584300906068CB
:101D0000B0F5827F0DD10B46009200228021204643
:101D100000F016F870B1606D40F02000606503209F
:101D200038BD009830B1401E009020688068C043E4
:101D30000006F6D5002038BD1000002000366E01E8
:101D40002DE9F8431E46914688460446089DFFF754
:101D5000D3F8401B351AFFF7CFF80746254800682F
:101D6000C0F3CB30684338E0701C37D0FFF7C4F8BD
:101D7000C01BA84203D215B1009860B32CE02068C4
:101D8000416821F0E00141606068B0F5827F0BD1CD
:101D9000A068B0F5004F02D0B0F5806F04D1206884
:101DA000016821F040010160A06AB0F5005F09D12F
:101DB0002068016821F4005101602068016841F445
:101DC00000510160012084F85100002084F8500087
:101DD0000320BDE8F8830025401E0090206881683C
:101DE00038EA010004D000214945BDD10020F0E7C8
:101DF0000121F9E7100000207047FFF783B80000C9
:101E000030B593B030216846FEF724FB14210CA8AE
:101E1000FEF720FB1C480025016841F0805101605D
:101E2000006800F0805011901848016841F440416A
:101E300001600068022400F44040119001200090ED
:101E4000000401908001CDE9064008AA0420642125
:101E500082E813000B906846FFF7B8F908B172B634
:101E6000FEE70CA90F2081E831004FF48050CDE946
:101E70000F0503210CA8FFF7DFF8002801D072B688
:101E8000FEE713B030BD0000403802400070004053
:101E90000248016841F470010160704788ED00E07C
:101EA000FEE70907090E002804DB00F1E02080F8B6
:101EB0000014704700F00F0000F1E02080F8141DBE
:101EC0007047000008B5FFF725F8FFF799FFFFF707
:101ED00049FE2B48016841F480010160006800223E
:101EE00000F48000009011463820FFF773F8382086
:101EF000FFF762F8FFF792FEFFF753FD214C002237
:101F000010212046FEF7F3FF1F4D20492620FFF742
:101F100072FDF8B91D48FFF717FDD8B91B49A0227B
:101F200010311B48FEF75AFC1848012100F110033C
:101F300001225F5C865CBE4204D01031C9B2922996
:101F4000F6D307E0491C521CD2B2C9B2052AF0D31D
:101F50000120687028780128D7D11420FEF7FCFDF5
:101F600001212046FEF7BEFF0128CED1FFF79AFCE3
:101F700001212046FEF7B6FF0128F9D0C5E7000091
:101F80003038024000000240000000206C000020B9
:101F9000001006084FF04070E1EE100A704700068E
:101FA00010160006101600000000000000000102DC
:101FB0000304060708090000D81F000800000020DD
:101FC00014000000D4010008EC1F000814000020D9
:101FD000B4080000F001000800000000010000004B
:0C1FE00010000000000000000024F400CD
:040000050800019955
:00000001FF
