:020000040800F2
:100000002808002039020008C32200081D1D00082E
:10001000C122000893040008012500080000000028
:10002000000000000000000000000000592400084B
:100030001D05000800000000C52200085B24000820
:10004000530200085302000853020008530200083C
:100050005302000853020008050600085302000876
:10006000530200085302000853020008530200081C
:10007000530200085302000853020008530200080C
:100080005302000853020008530200080000000059
:100090000000000000000000000000005302000803
:1000A00053020008530200085302000853020008DC
:1000B00053020008530200085302000853020008CC
:1000C00053020008530200085302000853020008BC
:1000D0005302000853020008530200080000000009
:1000E00053020008530200085302000800000000F9
:1000F00000000000000000000000000053020008A3
:1001000000000000530200085302000853020008D8
:1001100000000000000000000000000000000000DF
:100120009504000853020008530200085302000817
:100130005302000800000000000000000000000062
:100140000000000000000000000000005302000852
:10015000530200085302000853020008530200082B
:1001600053020008530200080000000000000000D5
:10017000000000000000000000000000000000007F
:100180000000000053020008000000000000000012
:10019000530200085302000800F002F800F03CF897
:1001A0000AA090E8000C82448344AAF10107DA45D2
:1001B00001D100F031F8AFF2090EBAE80F0013F0E8
:1001C000010F18BFFB1A43F001031847482600002F
:1001D00068260000103A24BF78C878C1FAD85207C0
:1001E00024BF30C830C144BF04680C6070470000B1
:1001F0000023002400250026103A28BF78C1FBD830
:10020000520728BF30C148BF0B6070471FB502F0CE
:10021000EBFA1FBD10B510BD00F001F91146FFF754
:10022000F5FF02F02BFA00F01FF903B4FFF7F2FF1D
:1002300003BC00F027F9000009488047094800473F
:10024000FEE7FEE7FEE7FEE7FEE7FEE7FEE7FEE786
:10025000FEE7FEE704480549054A064B70470000E3
:10026000F124000899010008280200202808002035
:10027000280400202804002053EA020C00F06980C2
:100280002DE9F04B4FF00006002B1FBFB3FA83F5AA
:1002900003FA05F424FA05F65E4012BF1643B2FADB
:1002A00082F502FA05F4C5F120051EBF22FA05FC0D
:1002B00044EA0C04203556EA044C4FEA144418BFB3
:1002C000641C4FF000084FF00009904271EB030CE2
:1002D00039D3002919BFB1FA81F701FA07F6B0FA4C
:1002E00080F700FA07F6C7F120071EBF20FA07FCC7
:1002F00046EA0C062037B6FBF4FCA7EB0507103FD7
:1003000007F01F0BCBF120060CFA0BFB2CFA06F6BC
:1003100044BFB3460026202FA4BF5E464FF0000B1B
:100320005BEA060C08BF4FF0010B19EB0B09ABFBA6
:10033000027C48EB0608C01B06FB02CC0BFB03CC7F
:1003400071EB0C01C1E70B46024641464846BDE849
:10035000F08B13B54FF000004FF00001AFF30080B9
:10036000BDE81C40704710B5203AC0F00B80B1E8E2
:100370001850203AA0E81850B1E81850A0E81850DA
:10038000BFF4F5AF5FEA027C24BFB1E81850A0E8E3
:10039000185044BF18C918C0BDE810405FEA827CFD
:1003A00024BF51F8043B40F8043B08BF7047D20714
:1003B00028BF31F8023B48BF11F8012B28BF20F8B5
:1003C000023B48BF00F8012B70474FF0000200B518
:1003D000134694469646203922BFA0E80C50A0E868
:1003E0000C50B1F12001BFF4F7AF090728BFA0E816
:1003F0000C5048BF0CC05DF804EB890028BF40F8E2
:10040000042B08BF704748BF20F8022B11F0804F23
:1004100018BF00F8012B704770477047704775464A
:1004200000F02CF8AE4605006946534620F0070060
:10043000854618B020B5FFF70DFFBDE820404FF00E
:1004400000064FF000074FF000084FF0000B21F0BE
:100450000701AC46ACE8C009ACE8C009ACE8C0098B
:10046000ACE8C0098D46704710B50446AFF3008074
:100470002046BDE81040FFF7D8BE00000048704796
:10048000C401002001491820ABBEFEE7260002008F
:100490007047FEE7014800F055BA00004401002013
:1004A00001681823CAB2103AB2FBF3F2054B6FF39E
:1004B0000901032A9B5CC36500D9091D81650846B3
:1004C00070470000F227000810B5014600208B6934
:1004D0008A6A4FF0C07453B1B3F5005F15D072B1A2
:1004E000012A0CD0022A0AD0032A09D104E01AB149
:1004F000012A06D0022A03D1C96AC90100D5012008
:1005000010BDC96AA142FAD010BD002AF7D0012A55
:10051000F2D0022AF3D0032AF3D010BD70470000B6
:1005200010B5D0B1012828D0022839D100210846C1
:1005300002F04EF81BA002F097F80A2000F03CFBF6
:100540000021012002F044F81BA002F08DF80E21DA
:10055000BDE81040012002F03BB80021084602F03F
:1005600037F81AA002F080F80A2000F025FB0421D9
:10057000012002F02DF819A00EE00221002002F067
:1005800027F819A002F070F80A2000F015FB0421EA
:10059000012002F01DF818A0BDE8104002F064B878
:1005A00010BD000043616E2774204F70656E2044BB
:1005B0006F6F7220000000005072657373205570D9
:1005C000646174654361726400000000546869737B
:1005D0002069732050726F6A656374004C6F636B9F
:1005E00020446F6F7200000057656C6C20436F6D84
:1005F0006520546F000000004D7920486F757365C9
:1006000000000000012000F0A1BB72B6FEE7000070
:10061000002229B101291AD002291BD04FF44072BF
:100620000E490B6823F440730B600B6813430B6097
:100630000A6822F0F8020A600A68022303EBC0008D
:1006400002430A60086840F48030086070474FF445
:100650008072E5E74FF40072E2E70000103C0240D0
:100660001348016889050FD5016821F40071016004
:10067000016841F400610160016821F400610160DA
:10068000016841F400710160016849050FD50168F6
:1006900021F480610160016841F4805101600168CA
:1006A00021F480510160016841F48061016070476C
:1006B000003C024008490A6822F440720A600A6855
:1006C00042F004020A600A684FF4803343EA0020D3
:1006D00002430A6070470000103C0240064A13685B
:1006E00023F44073136013681360136843F001032D
:1006F0001360017070470000103C0240094910B5BA
:100700000C6824F440740C600C6844F440740C6071
:100710000C6844F001040C600260BFF36F8F43600B
:1007200010BD0000103C0240074A136823F44073D8
:100730001360136843F480731360136843F001037C
:100740001360018070470000103C0240074A1368A4
:1007500023F440731360136843F400731360136849
:1007600043F001031360016070470000103C024039
:100770001C490868C2061C4805D5C26942F010022F
:10078000C26110220A600A68920605D5C26942F069
:100790000802C26120220A600A68520605D5C269B1
:1007A00042F00402C26140220A600A68120605D5BE
:1007B000C26942F00202C26180220A600A68D20560
:1007C00006D5C26942F00102C2614FF480720A602C
:1007D0000A68920705D5C26942F02002C261022070
:1007E000086070470C3C0240A401002070B511491C
:1007F00004460020C86100F0B7FB06460E4D09E034
:10080000601C07D024B100F0AFFB801BA04201D9CF
:10081000032070BD2868C003F2D42868C00701D047
:1008200001202860286810F4F970F2D0FFF7A0FFCB
:10083000012070BDA40100200C3C0240521E92B267
:1008400004D350F8013B01F8013BF7E77047000083
:100850002DE9F843174688460546002400F058FA6B
:10086000284600F029F80646E81900F025F8014668
:1008700010480022891B02600222491C8660C0E9E0
:100880000312694600F0AAF940B90DE0002318F8F8
:1008900004202946184600F0FDF918B100F0EAF9E5
:1008A000BDE8F883641C6D1CBC42EFDB00F0E8F986
:1008B0000020F5E7140000200021A0F1006343F6BA
:1008C000FF7293422BD3174B0344934201D2012171
:1008D00025E0154B0344934201D202211FE0134B44
:1008E0000344934201D2032119E0114A4FF6FF73EA
:1008F00002449A4201D2042111E00E4A83180E4AA2
:10090000934201D205210AE00C4B0344934201D2E9
:10091000062104E00A4B1844904200D20721084601
:100920007047000000C0FFF70080FFF70040FFF7AE
:100930000000FFF70000FEF7FFFF01000000FCF7DA
:100940000000FAF72DE9F84304464FF00009CDF80E
:10095000009063484FF41651A56D0068B0FBF1F7A5
:100960002E6894F85C10082000FA01F131420FD093
:1009700021680A6852070BD50A6822F004020A604F
:1009800094F85C108840A860606D40F001006065DC
:1009900094F85C104FF0010808FA01F0304208D0DA
:1009A00021684969090604D5A860606D40F002001D
:1009B000606594F85C1004208840304208D02168BB
:1009C0000968890704D5A860606D40F0040060657F
:1009D00094F85C1010208840304218D021680968D3
:1009E000090714D5A86020680168490304D5006888
:1009F000000308D5A16C07E00168C90503D40168AC
:100A000021F008010160216C09B12046884794F863
:100A10005C1020208840304231D021680968C90626
:100A20002DD5A86094F8350005282068016806D007
:100A3000490347D5006800031DD4616C1CE021F018
:100A4000160101602068416921F080014161206C3C
:100A500008B9A06C20B12068016821F0080101608C
:100A600094F85C103F208840A86084F8358084F8B2
:100A70003490216D1FE0E16B09B120468847606D1D
:100A800000282BD0606DC00714D0052084F83500F5
:100A90002068016821F0010101600098401C00906D
:100AA000B84203D820680068C007F6D184F83580C2
:100AB00084F83490E16C002910D001B02046BDE8E4
:100AC000F04308470168C905D5D4016821F0100139
:100AD000016084F8358084F83490CCE7BDE8F88371
:100AE000100000202DE9F041044600F03DFA0646D2
:100AF0005CB1022084F83500002584F83450206869
:100B0000016821F0010101600DE00120BDE8F081E4
:100B100000F02AFA801B052805D9202060650320F3
:100B200084F83500F2E720680068C007F0D1226839
:100B3000116820480140D4E901031843D4E9033681
:100B40003343184363691843A3691843E36918439F
:100B5000236A18430843616A042903D1D4E90B13BB
:100B600019430843106020684069666A20F0070155
:100B700030460E43012704280CD1A06A0643E06AE0
:100B800040B12046FFF7A0FC20B14020606584F80A
:100B90003570BAE7206846612046FFF781FC94F87B
:100BA0005C203F2191408160656584F835700020AC
:100BB000ACE700003F8010F070B5044600F0D4F9B7
:100BC0000546601C02D004480078044400F0CCF9CB
:100BD000401BA042FAD370BD040000202DE9F0476D
:100BE000044622480F46017E01290AD00121804691
:100BF00001764CF250394846FFF7F8FD020003D069
:100C00002FE00220BDE8F0874FF0FF303860206809
:100C1000174D012801D0A6681CE0207C6168FFF711
:100C200049FD4846FFF7E2FD0246286820F004002F
:100C3000286014E0217C3046FFF7EAFC4846FFF7C5
:100C4000D5FD0200286820F0FA00286001D03E603F
:100C500005E0761CD4E902100844B042EAD8FFF758
:100C6000FFFC002188F818101046CBE7A4010020F3
:100C7000103C02400148C06970470000A4010020F8
:100C80000348016841F00041016000207047000006
:100C9000103C02402DE9F0471B4E05461446307EBD
:100CA0001F468946012808D0012030764CF2503882
:100CB0004046FFF79BFD18B114E00220BDE8F08725
:100CC0009DB1012D16D0022D19D022463B46484633
:100CD000FFF714FD4046FFF789FD0C490A6822F032
:100CE00001020A6000213176E8E7E1B24846FFF7E9
:100CF000F5FCEFE7A1B24846FFF716FDEAE721460B
:100D00004846FFF723FDE5E7A4010020103C024020
:100D1000074900200A68002A09DA054A054B0C3AFF
:100D20001360054B13600968002900DA0120704741
:100D3000103C024023016745AB89EFCD012801D16A
:100D4000014948707047000000000020044910B5B8
:100D50000A68024202D00860FFF7F0FF10BD0000F1
:100D6000143C01402DE9F84FDFF8B8A1002201241E
:100D700003254FF00F090AF1040BAAF1040E00BF7E
:100D80000B6804FA02F63340B34273D10F7907F0CF
:100D90000307012F01D0022F16D187684FEA4208BE
:100DA00005FA08FC27EA0C07D1F80CC00CFA08FC7D
:100DB0004CEA070CC0F808C04768B7430E79C6F381
:100DC000001696403E4346600E79F643B6070DD0B6
:100DD000C768560005FA06FC27EA0C07D1F808C0D8
:100DE0000CFA06FC4CEA070CC0F80CC00E7906F0B1
:100DF0000306022E10D1D60800EB8608D8F8206032
:100E000057074FEAD76C09FA0CF7BE430F6907FA88
:100E10000CF73743C8F8207006684FEA420C05FA11
:100E20000CF7BE430F7907F0030707FA0CF73743B7
:100E300007604E6816F4403F6DD03B4E376847F46C
:100E400080473760366822F0030706F48046009634
:100E5000364E07EB060CDCF8086897073F0F09FAD7
:100E600007F826EA0806DFF8C880404503D14FF0AE
:100E700000081EE04FE0DFF8BC80404502D14FF093
:100E8000010816E0DFF8B080404502D14FF00208BB
:100E90000FE0DFF8A880404502D14FF0030808E0DA
:100EA000DFF89C80404502D14FF0040801E04FF08C
:100EB000070808FA07F848EA0608CCF80888DAF8BC
:100EC00000605746D1F804C09E435FEACC2C00D5A1
:100ED0001E433E60DBF800605F46D1F804C09E43CD
:100EE0005FEA8C2C00D51E433E60DEF8006077463A
:100EF000D1F804C09E435FEA8C3C00D51E433E609F
:100F0000084F083F3E68D1F804C09E435FEACC3CDE
:100F100000D51E433E60521C102AFFF431AFBDE8DD
:100F2000F88F0000083C0140443802400030014086
:100F3000000002400004024000080240000C024091
:100F4000001002400069084000D00120704742694B
:100F500021EA02030A4043EA0241816170470AB173
:100F6000816170470904FBE7014880687047000011
:100F70000400002070B5040025D094F83D00002541
:100F800020B984F83C50204600F04EF9242084F823
:100F90003D002068016821F00101016020680168BE
:100FA00041F4004101602068016821F400410160C2
:100FB00000F0A2FA4D4A6168914201D84C4900E024
:100FC0004C49884201D2012070BD4B492368B0FBD7
:100FD000F1F15E6826F03F060E435E60636893425F
:100FE00006D94FF4967359434FF47A73B1FBF3F17A
:100FF0002368491C1E6A26F03F0631431962616866
:10100000914210D84900401EB0FBF1F2521CC2F3CD
:101010000B02042A01D2042022E0B0FBF1F0401CB4
:10102000C0F30B001CE0A268F2B301EBC10303EBB9
:101030000116431EB3FBF6F35B1C43F480431B0510
:1010400049D092B301EBC10202EB0111401EB0FB8B
:10105000F1F0401CC0F30B0040F4804040F400402D
:101060002168CA694CF6FF739A431043C861D4E9FA
:10107000071001432068026822F0C002114301609A
:10108000D4E9030101432068826848F2FF339A43A0
:1010900011438160D4E9050108432168CA6822F040
:1010A000FF021043C86001E00EE016E0206801680E
:1010B00041F0010101602564202084F83D00256392
:1010C00084F83E50002070BD01EB4106431EB3FB87
:1010D000F6F35B1CB3E70120C2E701EB4101401EC0
:1010E000B0FBF1F0401CC0F30B00B7E7A086010095
:1010F00080841E0000093D0040420F002DE9F84F9A
:101100001F4690468A460446DDF82890FFF72CFFDC
:10111000054694F83D0020287FD11923012240493B
:101120002046009500F086FE002876D194F83C0019
:10113000012872D0012084F83C0020680168C907AA
:1011400003D1016841F0010101602068016821F4C8
:1011500000610160212084F83D00102084F83E00E9
:1011600000262664C4F824806785608D20852D487C
:10117000E0622B464A465146204600F0E7FD90B912
:10118000206841698069009036E02A464946204639
:1011900000F0CFFE50B1206C042804D12068016813
:1011A00041F4007101600120BDE8F88F606A216898
:1011B00000780861606A401C6062618D491E61852B
:1011C000218D491E89B2218522685369DB435B0763
:1011D0000BD451B100781061606A401C6062608D70
:1011E000401E6085208D401E20852A4649462046A7
:1011F00000F0FAFD0028CED1208D0028C5D154F88A
:101200003D0B016841F400710160202004F81E09C3
:10121000E67766770020C7E7FFE70220C4E7000013
:10122000020010000000FFFF10B586B00446142134
:101230006846FFF7CAF813492068884220D112484F
:101240000021026842F002020260006800F0020021
:101250000590C02000901220CDE9010103200390E9
:101260000420049069460948FFF77CFD06481030C9
:10127000016841F400110160006800F4001005905D
:1012800006B010BD00540040303802400004024057
:101290000248816802781144816070470400002090
:1012A0000B4810B5016841F400710160016841F418
:1012B00080610160016841F480710160032000F0E9
:1012C0006FF80F2000F006F800F024F8002010BDA1
:1012D000003C024070B50D4D04464FF47A712878F9
:1012E000B1FBF0F00A490968B1FBF0F000F09BFC9B
:1012F00048B9102C07D200222146501E00F030F8C9
:1013000000206C6070BD012070BD00000400002052
:10131000100000200A4808B5016841F480410160CE
:10132000006800F4804000900548001F016841F00B
:1013300080510160006800F08050009008BD0000FE
:1013400044380240002809DB00F01F0201219140CF
:101350004009800000F1E020C0F800117047000053
:10136000F0B40E4B1B680C46C3F30223C3F1070510
:10137000042D00D90425191D072901D2002300E0FE
:10138000DB1E012606FA05F1491E214099409E40C8
:10139000761E16403143F0BC01F0B3B80CED00E00E
:1013A000064900F0070208684FF6FF03184040EABC
:1013B0000220034A10430860704700000CED00E073
:1013C0000000FA052DE9F0470E46050065D0DFF86C
:1013D0001481D8F80000F7B200F00700B04207D23D
:1013E00088F80070D8F8000000F00700B04254D12F
:1013F00028683D4C810712D5400703D5206840F48A
:10140000E05020602878000703D5206840F4604051
:1014100020602068A96820F0F00008432060287848
:10142000C0072DD0304968680839012812D0022839
:1014300013D0032811D00968890700292DDA216803
:1014400021F0030101432160FFF78EFD814641F247
:10145000883A0EE009688903EFE709688901ECE73B
:10146000FFF782FDA0EB0901514502D90320BDE839
:10147000F0872068696800F00C00B0EB810FEFD1B5
:10148000D8F80010404601F00701B14207D90770B3
:10149000006800F00700B04201D00120E7E728789B
:1014A000400705D52068E96820F4E0500843206033
:1014B0002878000706D52068296920F4604040EAB2
:1014C000C100206000F028F82168084AC1F3031128
:1014D000515CC8400649086006480068FFF7FAFEFC
:1014E0000020C4E7003C024008380240FA27000808
:1014F0001000002008000020044805490068096821
:10150000044AC1F38221515CC8407047100000209A
:10151000083802400A280008154810B5006810F085
:101520000C02144813D04110042A0FD0082A0ED1FF
:101530000F4C241F2268236802F03F025B0207D58C
:101540002068C0F38810A0FB010106E0084610BD2A
:101550002168C1F38811A1FB00010023FEF78CFE76
:101560002168C1F30141491C4900B0FBF1F010BDF5
:10157000083802400024F4002DE9F84F04006ED032
:101580002078DFF84C93C007A9F104054AD009F18F
:1015900004000168C1F38101012908D00068C0F38B
:1015A000810002280AD1D9F80000400206D5286837
:1015B000800337D560680028E1D033E06068B0F57B
:1015C000803F10D0B0F5A02F286810D020F48030D4
:1015D0002860286820F4802028606068A8B1FFF7A0
:1015E000C3FC06460DE0286840F48030F4E740F480
:1015F00080202860F7E700BFFFF7B6FC801B642857
:1016000073D828688003F7D50CE0FFF7ADFC0646D9
:1016100005E000BFFFF7A8FC801B6428F0D828680D
:101620008003F7D42078DFF8AC8280074FF0000AFF
:101630003ED5A748001D016811F00C0F08D00068C6
:10164000C0F3810002280BD1D9F80000400207D472
:101650002868800716D5E068012800D112E033E140
:10166000E068B8B10120C8F80000FFF77DFC06462D
:1016700005E000BFFFF778FC801B0228C0D828686F
:101680008007F7D52868216920F0F80040EAC100FA
:1016900028600DE0C8F800A0FFF766FC064604E0ED
:1016A000FFF762FC801B02281FD828688007F7D448
:1016B0002078000722D5864F87486169703771B15D
:1016C00001210160FFF750FC064604E0FFF74CFCE7
:1016D000801B022809D838688007F7D50EE0C0F8CB
:1016E00000A0FFF741FC064605E082E0FFF73CFC66
:1016F000801B02287DD838688007F7D420784007FF
:1017000068D5DFF8CCB100270BF13C0BDBF800000B
:10171000C0000BD4DBF8001041F08051CBF8001072
:10172000DBF80000012700F0805000906B4E30681D
:10173000C00510D4306840F480703060FFF714FCAE
:10174000009005E0FFF710FC0099401A022850D8DD
:101750003068C005F6D55E4EA0686C3601280FD003
:101760000528306810D020F001003060306820F08B
:1017700004003060A068B8B1FFF7F6FB00900FE0FE
:10178000306840F00100F4E740F004003060F7E713
:10179000FFF7EAFB0099411A41F28830814266D88E
:1017A00030688007F4D50EE0FFF7DEFB009007E01D
:1017B000FFF7DAFB0099411A41F28830814256D88E
:1017C00030688007F4D42FB1DBF8001021F080518D
:1017D000CBF80010A069C8B33D49091D0968C1F3E1
:1017E000810102294AD00228504607D0C8F860007B
:1017F00000E03CE0FFF7B8FB04463BE04746C8F892
:101800006000FFF7B1FB064605E000BFFFF7ACFB49
:10181000801B02282BD828688001F7D4D4E907015F
:101820000843A16A2E4A490802EB0141626A41EA73
:101830008211084394F82C1040EA0161C9F80010A5
:1018400001203866FFF790FB044606E03EE000BF4B
:10185000FFF78AFB001B022809D828688001F7D50A
:1018600034E000BFFFF780FB001B022802D90320F1
:10187000BDE8F88F28688001F4D427E00128F7D06C
:10188000D9F80000E26900F4800191421CD1226A7B
:1018900000F03F01914217D147F6C071626A0140E2
:1018A000B1EB821F10D1A26A4FF0FF3300F4403138
:1018B00003EB5202B1EB024F06D194F82C1000F06A
:1018C0007060B0EB016F01D00120D1E70020CFE7BD
:1018D0000438024000004742800E4742007000403A
:1018E0000000FFFF70B5040009D0606A002540B118
:1018F00025616561A56294F8510040B10CE00120BA
:1019000070BD6068B0F5827FF4D0E561F2E784F8DD
:101910005050204600F044F8022084F8510020681E
:10192000016821F040010160A088218900F48270E3
:1019300001F404410843A18901F400610843217CBA
:1019400001F002010843217D01F001010843218BD0
:1019500001F400710843217F01F03801084394F835
:10196000201001F080010843218D01F4005108434B
:1019700021680860A069042101EA104094F824104D
:1019800001F010010843216848602068C16921F412
:101990000061C1616565012084F85100002070BDBF
:1019A00070B586B0064614216846FEF70EFD204944
:1019B0003068884239D11F480025016841F48051C0
:1019C0000160006800F4805005901A4814380168DE
:1019D00041F0010101600068694600F001000590D6
:1019E000E02000900220CDE90105032003900520AE
:1019F00004901148FFF7B6F9114C104820604FF0E1
:101A0000C060C4E901054FF48060C4E90350801050
:101A10006561C4E90650256220466562FFF762F8F9
:101A200008B1FEF7F2FDF464A66306B070BD0000D5
:101A3000003001404438024000000240106402407F
:101A4000440100202DE9F84F044690F8500000278B
:101A50000A9E1D4692468B464FF0010901280ED082
:101A6000012084F85000FFF77FFA804694F8510077
:101A7000616801280CD0B1F5827F07D102E0022015
:101A8000BDE8F88FA16809B9042801D00227C2E097
:101A9000BBF1000F27D0BAF1000F24D01DB394F88A
:101AA0005100042802D0052084F851000020606510
:101AB000C4F838A0E587A587C4F830B0E586A586C8
:101AC0002064606420680168490603D4016841F01D
:101AD00040010160E068B0F5006F606805D0E8B3D0
:101AE000012D46D07FE0012795E008B1012D39D1C5
:101AF000206B21680088C860206B801C2063E08E0A
:101B0000401EE0862EE02068816889070FD5E18EAF
:101B100069B1B9F1010F0AD1216B0988C160206B4D
:101B2000801C2063E08E401EE0864FF00009206894
:101B30008168C9070CD0E18F51B1C068A16B0880E2
:101B4000A06B801CA063E08F401EE0874FF001096E
:101B5000FFF70AFAA0EB0800B04200E009E001D369
:101B6000701C50D1E08E0028CDD1E08F0028CAD162
:101B70003FE0206B216800780873206B401C2063D5
:101B8000E08E401EE0862EE02068816889070FD530
:101B9000E18E69B1B9F1010F0AD1216B09780173A6
:101BA000206B401C2063E08E401EE0864FF0000951
:101BB00020688168C9070CD0E18F51B1C068A16B62
:101BC0000870A06B401CA063E08F401EE0874FF0C0
:101BD0000109FFF7C9F9A0EB0800B04202D3701C5D
:101BE00001D010E07EB1E08E0028CDD1E08F00283A
:101BF000CAD142463146204600F0A6FB28B1012753
:101C00002020606507E0032705E0A06818B9206878
:101C1000C16880680090012084F85100002084F899
:101C2000500038462CE710B5401EB0F1807F01D33C
:101C3000012010BD4FF0E02460610F21601700F01B
:101C400060FC0020A06107202061002010BD000082
:101C50002DE9F0412E4E30222C493046FEF7EEFDA4
:101C60002A49302201F13000FEF77DFB294C27493B
:101C70003C39E27801F16C0000253AB1027882B17A
:101C8000027C9AB190F82000B8B11CE001F12C025E
:101C90006C3192E88C1081E88C10057480F820502B
:101CA00011E001F12C006C318DC803E02C3191E87A
:101CB0008D00503181E88D0005E0144850302C3102
:101CC0008EC980E88E001149302230313046FEF74F
:101CD000BFFD30220D493046FEF7B0FD0022302115
:101CE0000A4800F01EFC22280CD0232808D0E570FA
:101CF0004FF480510848FFF72AF96570BDE8F0817C
:101D0000022000E00120E070F2E70000E400002083
:101D10000010060800000020000C0240FEE70168E9
:101D20004A69D24352050FD46FF480624A610021A0
:101D300040F8301F202242738173026942F004028E
:101D4000026101730120704700207047F8B5044616
:101D5000C06A1E460D461746082807D0012805D040
:101D600010F5803F02D0206B122804D12068016852
:101D700041F480710160134600224FF001112046AA
:101D8000009600F057F840B120680068C00502D501
:101D90004FF4007020640320F8BD2069B0F5804F37
:101DA0000ED00620216800EAD51040F0F00008614E
:101DB00033463A460B49204600F070F878B902E005
:101DC00005F0FE0000E0E8B22168086105493346ED
:101DD0003A46891F204600F061F80028DCD0012037
:101DE000F8BD00000800010070B516460D46044617
:101DF0000DE02046FFF793FF08B1012070BD681C7D
:101E000005D0FFF7B1F8801BA84207D835B120688C
:101E10004069C0434007ECD4002070BD002044F866
:101E2000300F20216173A073216941F020012161ED
:101E30002073E2E72DE9F0471E4690460D46044622
:101E4000C1F30747DDF8209008E0701C06D0FFF7CB
:101E50008BF8A0EB0900B0420FD876B12068012FB3
:101E600018D0806925EA00000004000C14D000217D
:101E70004145EAD00020BDE8F087002044F8300F4B
:101E800020216173A073216941F020012161207339
:101E90000120F0E74069E5E70121E9E72DE9F04796
:101EA0009A4691460E46044600254FF02008C1F39D
:101EB000074725E020684069C043400514D42068E6
:101EC000016841F40071016021686FF4806048612D
:101ED000256384F83D8084F83E50206C40F0040077
:101EE000206484F83C501FE0B9F1FF3F08D0FFF7B1
:101EF0003BF8A0EB0A0149450CD8B9F1000F09D015
:101F00002068012F13D0806926EA00000004000C2D
:101F10000BD0CFE744F8305F84F80D80A5732069BB
:101F200040F02000206125730120BDE8F087406962
:101F3000EAE770B516460D4604460DE02046FFF769
:101F4000EEFE08B1012070BD681C05D0FFF70CF84B
:101F5000801BA84207D835B120684069C0430006FD
:101F6000ECD4002070BD002044F8300F20216173B4
:101F7000A073216941F0200121612073E2E710B5CF
:101F8000142000F059F8800705D10321BDE8104066
:101F9000142000F073B810BD7CB504460025294616
:101FA0000D2000F001F9932020702020607001A81E
:101FB00023460090022219460C2000F06BF8010025
:101FC00009D1225C401C5540C0B20428F9D3205CE2
:101FD000A84200D0022108467CBD70B50C460546DB
:101FE00000F02AF820EA04012846BDE8704000F01D
:101FF000DBB810B500F03EF88D212A2000F0D4F8AF
:102000003E212B2000F0D0F81E212D2000F0CCF82E
:1020100000212C2000F0C8F87021262000F0C4F820
:102020004021152000F0C0F83D21112000F0BCF83F
:10203000BDE81040FFF7A3BF7E2101EA400040F059
:10204000800000F051B97CB50C46054607210D20F3
:1020500000F0AAF8257001A8234600900122194635
:102060000C2000F017F818B9BDF80410102900D0A2
:1020700002207CBD0F21012000F096B870B50C46FF
:102080000546FFF7D9FF40EA04012846BDE8704045
:1020900000F08AB82DE9FF5F00270226DDF838A09E
:1020A00015468B468146B8460C2805D0B9F10E0F6F
:1020B00005D11227102001E077273020804647F015
:1020C0008001022000F070F880210420FFF785FFD6
:1020D00080210A20FFF7D2FF0021012000F064F8E0
:1020E000002406E01BF80410092000F05DF8641CD1
:1020F000A4B2AC42F6D34946012000F055F8B9F13C
:102100000C0F03D180210D20FFF7B8FF4FF4FA65C3
:102110000420FFF791FF6D1E2D0404462D0C04D002
:10212000E00702D114EA080FF2D080210D20FFF75A
:1021300054FF35B10620FFF77FFF10F01B0F04D0CE
:10214000022604B03046BDE8F09F00263C40E00780
:1021500000D00126B9F10C0FF3D10A20FFF76CFF74
:1021600004460C20FFF768FF10F007004FEAC40197
:1021700004D008390844AAF8000001E0AAF80010C9
:1021800024B1102C04D91024002503E00124FBE71E
:10219000002506E00920FFF74FFF039948556D1C05
:1021A000ADB2A542F6D3CCE77E2202EA400000F0B1
:1021B000B3B800002DE9F04186B014216846FEF75F
:1021C00004F92B480024016841F080010160016896
:1021D00001F080010591016841F001010160016891
:1021E00001F001010591016841F0080101600168F9
:1021F00001F008010591016841F0020101600068E9
:102200001C4F00F002000590012210213846FEF715
:10221000A6FEDFF86480BE14002231464046FEF779
:102220009EFE01254FF488100095CDE90104694612
:102230003846FEF797FD10200090CDE9015469461D
:1022400038460394FEF78EFD0096CDE901546946A9
:1022500040460394FEF786FD002211460620FFF754
:102260007FF80620FFF76EF806B0BDE8F0810000A9
:102270003038024000000240000C02400F4810B508
:102280000D4901604FF48271416000218160C1609D
:102290004FF400720161C0E905121022C0E9072164
:1022A000416281620A21C162FFF71CFB002801D054
:1022B00072B6FEE710BD0000003001407C00002037
:1022C000FEE7FEE7704700000EB501238DF804001D
:1022D0000A20009002AA01A90248FFF7B3FB9DF86B
:1022E00008000EBD7C00002070B50A4D0446002297
:1022F00010212846FEF733FE2046FFF7E5FF0020B9
:10230000FFF7E2FF0446012210212846FEF727FED0
:10231000204670BD0000024070B50A4C0E460546CE
:10232000002210212046FEF71AFE2846FFF7CCFFB8
:102330003046FFF7C9FF2046BDE87040012210215A
:10234000FEF70DBE0000024038B504461248134B9C
:102350000068B0FBF3F04FF47A7358430090606864
:10236000B0F5827F0DD10B460092002280212046DD
:1023700000F016F870B1606D40F020006065032039
:1023800038BD009830B1401E009020688068C0437E
:102390000006F6D5002038BD1000002000366E0182
:1023A0002DE9F8431E46914688460446089DFEF7EF
:1023B000DBFD401B351AFEF7D7FD074625480068B0
:1023C000C0F3CB30684338E0701C37D0FEF7CCFD4B
:1023D000C01BA84203D215B1009860B32CE020685E
:1023E000416821F0E00141606068B0F5827F0BD167
:1023F000A068B0F5004F02D0B0F5806F04D120681E
:10240000016821F040010160A06AB0F5005F09D1C8
:102410002068016821F4005101602068016841F4DE
:1024200000510160012084F85100002084F8500020
:102430000320BDE8F8830025401E009020688168D5
:1024400038EA010004D000214945BDD10020F0E761
:102450000121F9E7100000207047FEF719BF0000C6
:1024600030B593B030216846FDF7AFFF14210CA8BA
:10247000FDF7ABFF1C480025016841F08051016069
:10248000006800F0805011901848016841F4404104
:1024900001600068022400F4404011900120009087
:1024A000000401908001CDE9064008AA04206421BF
:1024B00082E813000B906846FFF75EF808B172B629
:1024C000FEE70CA90F2081E831004FF48050CDE9E0
:1024D0000F0503210CA8FEF775FF002801D072B686
:1024E000FEE713B030BD00004038024000700040ED
:1024F0000248016841F470010160704788ED00E016
:10250000FEE70907090E002804DB00F1E02080F84F
:102510000014704700F00F0000F1E02080F8141D57
:10252000704730B504460020034606E0E55C95425E
:1025300001D1401CC0B25B1CDBB28B42F6D330BD74
:1025400010B5802000F050F80024202000F06CF836
:10255000641C462CF9DB10BD10B53220FEF72CFBB5
:10256000302000F041F80520FEF726FB302000F077
:102570003BF80120FEF720FB302000F035F80A2060
:10258000FEF71AFB202000F02FF80A20FEF714FBBC
:10259000282000F029F80120FEF70EFB082000F0AB
:1025A00023F80120FEF708FB012000F01DF80120B0
:1025B000FEF702FB0120FEF7FFFA062000F014F8F8
:1025C0000120FEF7F9FABDE810400C2000F00CB82D
:1025D00010B1012805D102E041F0800101E041F095
:1025E000C001C8B2AFF300801CB500F0F00141F0AB
:1025F0000C028DF8042041F0080100018DF805104F
:1026000040F00C018DF8061040F008008DF807002E
:1026100064200090042301AA4E210248FEF76EFDBB
:102620001CBD0000280000201CB500F0F00141F0A6
:102630000D028DF8042041F0090100018DF805100C
:1026400040F00D018DF8061040F009008DF80700EC
:1026500064200090042301AA4E210248FEF74EFD9B
:102660001CBD00002800002010B5044602E0641CD8
:10267000FFF7DAFF20780028F9D110BD08B5FEF782
:102680000FFEFFF7EDFEFFF795FD3C4800240168C3
:1026900041F4800101600068224600F4800000904F
:1026A00021463820FEF75CFE3820FEF74BFEFFF790
:1026B000E5FD3448324901603349C0E901144FF463
:1026C0008041C0E9034144618461C4610462FEF752
:1026D00051FC08B172B6FEE7FFF78BFC2B4E0022CF
:1026E00010213046FEF73BFCFFF736FF284D2878D7
:1026F000FDF716FF23492620AC31FFF7A4FC40BBB1
:102700002048AC30FFF748FC18BB1E493022BC31D2
:102710002048FEF793F8002402271A492246AC31DC
:1027200001F1100000F038F848B10124AC70FFF757
:1027300007FF4FF4C870FEF73FFA2C7009E0641CE5
:10274000E4B2FFF7FDFE6420FEF736FA2F70032C8B
:10275000E3D368780128CAD11420FEF72DFA0121AD
:102760003046FEF7EFFB0128C1D1FFF771FA0121D6
:102770003046FEF7E7FB0128F9D0B8E730380240D1
:102780000054004028000020A08601000000024004
:10279000000000200010060830B5034601205AB1A1
:1027A000012A14D0022A0DD101229D188C5C95F8C3
:1027B0002050AC4205D113E001228C5C9D5CAC4200
:1027C00001D0002030BD521C052AF6DB30BD9D181B
:1027D0008C5C2D7CAC42F4D1521C052AF7DB30BD59
:1027E000521C052AE1DB30BD4FF04070E1EE100ACB
:1027F00070470006101600061016000000000000CA
:10280000000001020304060708090000000001029D
:102810000304000034280008000000201400000019
:10282000D401000848280008140000201408000003
:10283000F00100080000000001000000100000008E
:08284000000000000024F40078
:040000050800019955
:00000001FF
